{
  "contractName": "CampaignFactory",
  "abi": [
    {
      "inputs": [
        {
          "internalType": "uint256",
          "name": "",
          "type": "uint256"
        }
      ],
      "name": "deployedCampaigns",
      "outputs": [
        {
          "internalType": "contract Campaign",
          "name": "",
          "type": "address"
        }
      ],
      "stateMutability": "view",
      "type": "function"
    },
    {
      "inputs": [
        {
          "internalType": "string",
          "name": "title",
          "type": "string"
        },
        {
          "internalType": "string",
          "name": "description",
          "type": "string"
        },
        {
          "internalType": "string",
          "name": "imageHash",
          "type": "string"
        },
        {
          "internalType": "uint256",
          "name": "goalAmount",
          "type": "uint256"
        },
        {
          "internalType": "uint256",
          "name": "minimumContrubution",
          "type": "uint256"
        },
        {
          "internalType": "uint256",
          "name": "deadline",
          "type": "uint256"
        }
      ],
      "name": "createCampaign",
      "outputs": [],
      "stateMutability": "nonpayable",
      "type": "function"
    },
    {
      "inputs": [],
      "name": "getDeployedCampaigns",
      "outputs": [
        {
          "internalType": "contract Campaign[]",
          "name": "",
          "type": "address[]"
        }
      ],
      "stateMutability": "view",
      "type": "function"
    }
  ],
  "bytecode": "0x608060405234801561001057600080fd5b50611b0c806100206000396000f3fe608060405234801561001057600080fd5b50600436106100415760003560e01c806327f2b91d14610046578063339d50a51461024d5780634acb9d4f146102a5575b600080fd5b61024b600480360360c081101561005c57600080fd5b810190808035906020019064010000000081111561007957600080fd5b82018360208201111561008b57600080fd5b803590602001918460018302840111640100000000831117156100ad57600080fd5b91908080601f016020809104026020016040519081016040528093929190818152602001838380828437600081840152601f19601f8201169050808301925050505050505091929192908035906020019064010000000081111561011057600080fd5b82018360208201111561012257600080fd5b8035906020019184600183028401116401000000008311171561014457600080fd5b91908080601f016020809104026020016040519081016040528093929190818152602001838380828437600081840152601f19601f820116905080830192505050505050509192919290803590602001906401000000008111156101a757600080fd5b8201836020820111156101b957600080fd5b803590602001918460018302840111640100000000831117156101db57600080fd5b91908080601f016020809104026020016040519081016040528093929190818152602001838380828437600081840152601f19601f820116905080830192505050505050509192919290803590602001909291908035906020019092919080359060200190929190505050610304565b005b6102796004803603602081101561026357600080fd5b810190808035906020019092919050505061051d565b604051808273ffffffffffffffffffffffffffffffffffffffff16815260200191505060405180910390f35b6102ad610559565b6040518080602001828103825283818151815260200191508051906020019060200280838360005b838110156102f05780820151818401526020810190506102d5565b505050509050019250505060405180910390f35b600033878787878787604051610319906105e7565b808873ffffffffffffffffffffffffffffffffffffffff16815260200180602001806020018060200187815260200186815260200185815260200184810384528a818151815260200191508051906020019080838360005b8381101561038c578082015181840152602081019050610371565b50505050905090810190601f1680156103b95780820380516001836020036101000a031916815260200191505b50848103835289818151815260200191508051906020019080838360005b838110156103f25780820151818401526020810190506103d7565b50505050905090810190601f16801561041f5780820380516001836020036101000a031916815260200191505b50848103825288818151815260200191508051906020019080838360005b8381101561045857808201518184015260208101905061043d565b50505050905090810190601f1680156104855780820380516001836020036101000a031916815260200191505b509a5050505050505050505050604051809103906000f0801580156104ae573d6000803e3d6000fd5b5090506000819080600181540180825580915050600190039060005260206000200160009091909190916101000a81548173ffffffffffffffffffffffffffffffffffffffff021916908373ffffffffffffffffffffffffffffffffffffffff16021790555050505050505050565b6000818154811061052a57fe5b906000526020600020016000915054906101000a900473ffffffffffffffffffffffffffffffffffffffff1681565b606060008054806020026020016040519081016040528092919081815260200182805480156105dd57602002820191906000526020600020905b8160009054906101000a900473ffffffffffffffffffffffffffffffffffffffff1673ffffffffffffffffffffffffffffffffffffffff1681526020019060010190808311610593575b5050505050905090565b6114e2806105f58339019056fe60806040523480156200001157600080fd5b50604051620014e2380380620014e2833981810160405260e08110156200003757600080fd5b8101908080519060200190929190805160405193929190846401000000008211156200006257600080fd5b838201915060208201858111156200007957600080fd5b82518660018202830111640100000000821117156200009757600080fd5b8083526020830192505050908051906020019080838360005b83811015620000cd578082015181840152602081019050620000b0565b50505050905090810190601f168015620000fb5780820380516001836020036101000a031916815260200191505b50604052602001805160405193929190846401000000008211156200011f57600080fd5b838201915060208201858111156200013657600080fd5b82518660018202830111640100000000821117156200015457600080fd5b8083526020830192505050908051906020019080838360005b838110156200018a5780820151818401526020810190506200016d565b50505050905090810190601f168015620001b85780820380516001836020036101000a031916815260200191505b5060405260200180516040519392919084640100000000821115620001dc57600080fd5b83820191506020820185811115620001f357600080fd5b82518660018202830111640100000000821117156200021157600080fd5b8083526020830192505050908051906020019080838360005b83811015620002475780820151818401526020810190506200022a565b50505050905090810190601f168015620002755780820380516001836020036101000a031916815260200191505b506040526020018051906020019092919080519060200190929190805190602001909291905050506040518061010001604052808873ffffffffffffffffffffffffffffffffffffffff168152602001878152602001868152602001858152602001848152602001838152602001828152602001600115158152506000808201518160000160006101000a81548173ffffffffffffffffffffffffffffffffffffffff021916908373ffffffffffffffffffffffffffffffffffffffff160217905550602082015181600101908051906020019062000356929190620003e3565b50604082015181600201908051906020019062000375929190620003e3565b50606082015181600301908051906020019062000394929190620003e3565b506080820151816004015560a0820151816005015560c0820151816006015560e08201518160070160006101000a81548160ff0219169083151502179055509050505050505050505062000489565b828054600181600116156101000203166002900490600052602060002090601f016020900481019282601f106200042657805160ff191683800117855562000457565b8280016001018555821562000457579182015b828111156200045657825182559160200191906001019062000439565b5b5090506200046691906200046a565b5090565b5b80821115620004855760008160009055506001016200046b565b5090565b61104980620004996000396000f3fe60806040526004361061009c5760003560e01c806382fde0931161006457806382fde0931461029e5780638a9cfd55146102c95780639e025bc3146103bb578063b60d4288146103f6578063d7d1bbdb14610400578063fcd802b11461043b5761009c565b80630a144391146100a15780631cee07001461010857806341c0e1b5146101745780635b18056b1461018b57806381d12c58146101b6575b600080fd5b3480156100ad57600080fd5b506100f0600480360360208110156100c457600080fd5b81019080803573ffffffffffffffffffffffffffffffffffffffff1690602001909291905050506105de565b60405180821515815260200191505060405180910390f35b34801561011457600080fd5b506101416004803603602081101561012b57600080fd5b81019080803590602001909291905050506105fe565b604051808381526020018273ffffffffffffffffffffffffffffffffffffffff1681526020019250505060405180910390f35b34801561018057600080fd5b50610189610642565b005b34801561019757600080fd5b506101a06106db565b6040518082815260200191505060405180910390f35b3480156101c257600080fd5b506101ef600480360360208110156101d957600080fd5b81019080803590602001909291905050506106e1565b60405180806020018681526020018573ffffffffffffffffffffffffffffffffffffffff1681526020018415158152602001838152602001828103825287818151815260200191508051906020019080838360005b8381101561025f578082015181840152602081019050610244565b50505050905090810190601f16801561028c5780820380516001836020036101000a031916815260200191505b50965050505050505060405180910390f35b3480156102aa57600080fd5b506102b36107e9565b6040518082815260200191505060405180910390f35b3480156102d557600080fd5b506103b9600480360360608110156102ec57600080fd5b810190808035906020019064010000000081111561030957600080fd5b82018360208201111561031b57600080fd5b8035906020019184600183028401116401000000008311171561033d57600080fd5b91908080601f016020809104026020016040519081016040528093929190818152602001838380828437600081840152601f19601f82011690508083019250505050505050919291929080359060200190929190803573ffffffffffffffffffffffffffffffffffffffff1690602001909291905050506107ef565b005b3480156103c757600080fd5b506103f4600480360360208110156103de57600080fd5b8101908080359060200190929190505050610962565b005b6103fe610aa5565b005b34801561040c57600080fd5b506104396004803603602081101561042357600080fd5b8101908080359060200190929190505050610bc4565b005b34801561044757600080fd5b50610450610d04565b604051808973ffffffffffffffffffffffffffffffffffffffff168152602001806020018060200180602001888152602001878152602001868152602001851515815260200184810384528b818151815260200191508051906020019080838360005b838110156104ce5780820151818401526020810190506104b3565b50505050905090810190601f1680156104fb5780820380516001836020036101000a031916815260200191505b5084810383528a818151815260200191508051906020019080838360005b83811015610534578082015181840152602081019050610519565b50505050905090810190601f1680156105615780820380516001836020036101000a031916815260200191505b50848103825289818151815260200191508051906020019080838360005b8381101561059a57808201518184015260208101905061057f565b50505050905090810190601f1680156105c75780820380516001836020036101000a031916815260200191505b509b50505050505050505050505060405180910390f35b600b6020528060005260406000206000915054906101000a900460ff1681565b60096020528060005260406000206000915090508060000154908060010160009054906101000a900473ffffffffffffffffffffffffffffffffffffffff16905082565b6000800160009054906101000a900473ffffffffffffffffffffffffffffffffffffffff1673ffffffffffffffffffffffffffffffffffffffff163373ffffffffffffffffffffffffffffffffffffffff161461069e57600080fd5b6000800160009054906101000a900473ffffffffffffffffffffffffffffffffffffffff1673ffffffffffffffffffffffffffffffffffffffff16ff5b600a5481565b600881815481106106ee57fe5b9060005260206000209060050201600091509050806000018054600181600116156101000203166002900480601f01602080910402602001604051908101604052809291908181526020018280546001816001161561010002031660029004801561079a5780601f1061076f5761010080835404028352916020019161079a565b820191906000526020600020905b81548152906001019060200180831161077d57829003601f168201915b5050505050908060010154908060020160009054906101000a900473ffffffffffffffffffffffffffffffffffffffff16908060020160149054906101000a900460ff16908060030154905085565b600c5481565b6000800160009054906101000a900473ffffffffffffffffffffffffffffffffffffffff1673ffffffffffffffffffffffffffffffffffffffff163373ffffffffffffffffffffffffffffffffffffffff161461084b57600080fd5b610853610f2f565b6040518060a001604052808581526020018481526020018373ffffffffffffffffffffffffffffffffffffffff16815260200160001515815260200160008152509050600881908060018154018082558091505060019003906000526020600020906005020160009091909190915060008201518160000190805190602001906108de929190610f76565b506020820151816001015560408201518160020160006101000a81548173ffffffffffffffffffffffffffffffffffffffff021916908373ffffffffffffffffffffffffffffffffffffffff16021790555060608201518160020160146101000a81548160ff02191690831515021790555060808201518160030155505050505050565b6000800160009054906101000a900473ffffffffffffffffffffffffffffffffffffffff1673ffffffffffffffffffffffffffffffffffffffff163373ffffffffffffffffffffffffffffffffffffffff16146109be57600080fd5b6000600882815481106109cd57fe5b906000526020600020906005020190506002600c54816109e957fe5b048160030154116109f957600080fd5b8060020160149054906101000a900460ff1615610a1557600080fd5b8060020160009054906101000a900473ffffffffffffffffffffffffffffffffffffffff1673ffffffffffffffffffffffffffffffffffffffff166108fc82600101549081150290604051600060405180830381858888f19350505050158015610a83573d6000803e3d6000fd5b5060018160020160146101000a81548160ff0219169083151502179055505050565b6000600501543410610b1c576001600b60003373ffffffffffffffffffffffffffffffffffffffff1673ffffffffffffffffffffffffffffffffffffffff16815260200190815260200160002060006101000a81548160ff021916908315150217905550600c600081548092919060010191905055505b600a6000815480929190600101919050555060405180604001604052803481526020013373ffffffffffffffffffffffffffffffffffffffff1681525060096000600a5481526020019081526020016000206000820151816000015560208201518160010160006101000a81548173ffffffffffffffffffffffffffffffffffffffff021916908373ffffffffffffffffffffffffffffffffffffffff160217905550905050565b600060088281548110610bd357fe5b90600052602060002090600502019050600b60003373ffffffffffffffffffffffffffffffffffffffff1673ffffffffffffffffffffffffffffffffffffffff16815260200190815260200160002060009054906101000a900460ff16610c3957600080fd5b8060040160003373ffffffffffffffffffffffffffffffffffffffff1673ffffffffffffffffffffffffffffffffffffffff16815260200190815260200160002060009054906101000a900460ff1615610c9257600080fd5b60018160040160003373ffffffffffffffffffffffffffffffffffffffff1673ffffffffffffffffffffffffffffffffffffffff16815260200190815260200160002060006101000a81548160ff02191690831515021790555080600301600081548092919060010191905055505050565b60008060000160009054906101000a900473ffffffffffffffffffffffffffffffffffffffff1690806001018054600181600116156101000203166002900480601f016020809104026020016040519081016040528092919081815260200182805460018160011615610100020316600290048015610dc45780601f10610d9957610100808354040283529160200191610dc4565b820191906000526020600020905b815481529060010190602001808311610da757829003601f168201915b505050505090806002018054600181600116156101000203166002900480601f016020809104026020016040519081016040528092919081815260200182805460018160011615610100020316600290048015610e625780601f10610e3757610100808354040283529160200191610e62565b820191906000526020600020905b815481529060010190602001808311610e4557829003601f168201915b505050505090806003018054600181600116156101000203166002900480601f016020809104026020016040519081016040528092919081815260200182805460018160011615610100020316600290048015610f005780601f10610ed557610100808354040283529160200191610f00565b820191906000526020600020905b815481529060010190602001808311610ee357829003601f168201915b5050505050908060040154908060050154908060060154908060070160009054906101000a900460ff16905088565b6040518060a001604052806060815260200160008152602001600073ffffffffffffffffffffffffffffffffffffffff168152602001600015158152602001600081525090565b828054600181600116156101000203166002900490600052602060002090601f016020900481019282601f10610fb757805160ff1916838001178555610fe5565b82800160010185558215610fe5579182015b82811115610fe4578251825591602001919060010190610fc9565b5b509050610ff29190610ff6565b5090565b5b8082111561100f576000816000905550600101610ff7565b509056fea2646970667358221220fa4d3d79de1dc9f9a14dea45a371eec78912bfa3773e87d91813b839d1f10dc564736f6c634300060c0033a2646970667358221220f43534c76098aa01d5fb98becd690ff27844d6892ff66171b986808983291ae864736f6c634300060c0033",
  "immutableReferences": {},
  "source": "// SPDX-License-Identifier: MIT\r\npragma solidity ^0.6.0;\r\n\r\ncontract CampaignFactory{\r\n    Campaign[] public deployedCampaigns;\r\n    \r\n    function createCampaign(\r\n        string memory title,\r\n        string memory description,\r\n        string memory imageHash,\r\n        uint goalAmount,\r\n        uint minimumContrubution,\r\n        uint deadline    \r\n    ) public{\r\n        Campaign newCampaign = new Campaign({\r\n            creator:msg.sender,\r\n            title:title,\r\n            description:description,\r\n            imageHash:imageHash,\r\n            goalAmount:goalAmount,\r\n            minimumContrubution: minimumContrubution,\r\n            deadline: deadline\r\n        });\r\n        \r\n        deployedCampaigns.push(newCampaign);\r\n    }\r\n    \r\n    function getDeployedCampaigns() public view returns(Campaign[] memory){\r\n       return deployedCampaigns; \r\n    }\r\n}\r\n\r\ncontract Campaign{\r\n    \r\n    struct Properties{\r\n        address payable creator;\r\n        string title;\r\n        string description;\r\n        string imageHash;\r\n        uint goalAmount;\r\n        uint minimumContrubution;\r\n        uint deadline;\r\n        bool active;\r\n    }\r\n    \r\n    struct Contribution {\r\n        uint amount;\r\n        address contributor;\r\n    }\r\n    \r\n    struct Request {\r\n        string description;\r\n        uint value;\r\n        address payable recipient;\r\n        bool complete;\r\n        uint approvalCount;\r\n        mapping(address => bool) approvals;\r\n    }\r\n    \r\n    Properties public properties;\r\n    Request[] public requests;\r\n    mapping (uint => Contribution) public contributions;\r\n    uint public contributionCount;\r\n    \r\n    mapping(address => bool) public approvers;\r\n    uint public approversCount;\r\n    \r\n    event LogCampaignCreated(uint id, string title, address addr, address creator);\r\n    event LogContributionSent(address projectAddress, address contributor, uint amount);\r\n    event LogRequestCreated();\r\n    event LogRequestFinilized();\r\n    event LogRequestApproved();\r\n\r\n    event LogFailure(string message);\r\n    \r\n    \r\n    \r\n    modifier isCreator {\r\n         require(msg.sender == properties.creator);\r\n        _;\r\n    }\r\n    \r\n    \r\n    constructor(\r\n        address creator,\r\n        string memory title,\r\n        string memory description,\r\n        string memory imageHash,\r\n        uint goalAmount,\r\n        uint minimumContrubution,\r\n        uint deadline\r\n    )\r\n        public\r\n    {\r\n        properties = Properties({\r\n            creator:address(uint160(creator)),\r\n            title:title,\r\n            description:description,\r\n            imageHash:imageHash,\r\n            goalAmount:goalAmount,\r\n            minimumContrubution:minimumContrubution,\r\n            deadline: deadline,\r\n            active:true\r\n        });\r\n    }\r\n    \r\n    /*\r\n    *   @desc funding\r\n    */\r\n    function fund() public payable{\r\n        // when contrubution is greater or equals to min. contrubution add contrubutor to approvers list\r\n        if(msg.value >= properties.minimumContrubution){\r\n            approvers[msg.sender] = true;\r\n            approversCount++;\r\n        }\r\n        \r\n        // add to contrubution list\r\n        contributionCount++;\r\n        contributions[contributionCount] = Contribution({\r\n            amount:msg.value,\r\n            contributor:msg.sender\r\n        });\r\n       \r\n    }\r\n    \r\n    /*\r\n    * @make request for withdraw\r\n    */\r\n    function createRequest(\r\n        string memory description,\r\n        uint value, \r\n        address payable recipient\r\n    ) public isCreator{\r\n        Request memory newRequest = Request({\r\n           description:description,\r\n           value:value,\r\n           recipient:recipient,\r\n           complete:false,\r\n           approvalCount:0\r\n        });\r\n        \r\n        // save to requests array\r\n        requests.push(newRequest);\r\n    }\r\n    \r\n    /*\r\n    * @ approve request\r\n    */\r\n    function approveRequest(uint index) public {\r\n         Request storage request = requests[index];\r\n        \r\n        require(approvers[msg.sender]);\r\n        require(!request.approvals[msg.sender]);\r\n        \r\n        request.approvals[msg.sender] = true;\r\n        request.approvalCount++;\r\n    }\r\n    \r\n    // finialize request\r\n    function finializeRequest(uint index) public isCreator{\r\n        \r\n        Request storage request = requests[index];\r\n        \r\n        require(request.approvalCount > (approversCount/2 ));\r\n        require(!request.complete);\r\n        \r\n        request.recipient.transfer(request.value);\r\n        request.complete = true;\r\n        \r\n    }  \r\n    \r\n    // kill/destroy contract by creator\r\n     function kill() public isCreator {\r\n        selfdestruct(properties.creator);\r\n    }\r\n    \r\n    /**\r\n     * Do not allow direct deposits.\r\n     */\r\n    // fallback() external payable {\r\n    //         revert();\r\n    //     }\r\n    \r\n    \r\n}",
  "sourcePath": "C:/Users/Deepa/Desktop/dfund_application/contracts/Dfund.sol",
  "compiler": {
    "name": "solc",
    "version": "0.6.12+commit.27d51765.Emscripten.clang"
  },
  "schemaVersion": "3.3.1",
  "updatedAt": "2020-12-06T12:26:41.715Z",
  "devdoc": {
    "kind": "dev",
    "methods": {},
    "version": 1
  },
  "userdoc": {
    "kind": "user",
    "methods": {},
    "version": 1
  }
}