{
  "contractName": "DfundFactory",
  "abi": [
    {
      "anonymous": false,
      "inputs": [
        {
          "indexed": false,
          "internalType": "address",
          "name": "addr",
          "type": "address"
        },
        {
          "indexed": false,
          "internalType": "address payable",
          "name": "creator",
          "type": "address"
        },
        {
          "indexed": false,
          "internalType": "string",
          "name": "title",
          "type": "string"
        },
        {
          "indexed": false,
          "internalType": "string",
          "name": "description",
          "type": "string"
        },
        {
          "indexed": false,
          "internalType": "uint256",
          "name": "goalAmount",
          "type": "uint256"
        },
        {
          "indexed": false,
          "internalType": "uint256",
          "name": "minimumContribution",
          "type": "uint256"
        },
        {
          "indexed": false,
          "internalType": "uint256",
          "name": "deadline",
          "type": "uint256"
        },
        {
          "indexed": false,
          "internalType": "string",
          "name": "country",
          "type": "string"
        },
        {
          "indexed": false,
          "internalType": "string",
          "name": "category",
          "type": "string"
        },
        {
          "indexed": false,
          "internalType": "string",
          "name": "imageHash",
          "type": "string"
        }
      ],
      "name": "LogCampaignCreated",
      "type": "event"
    },
    {
      "anonymous": false,
      "inputs": [
        {
          "indexed": false,
          "internalType": "string",
          "name": "message",
          "type": "string"
        }
      ],
      "name": "LogFailure",
      "type": "event"
    },
    {
      "inputs": [
        {
          "internalType": "uint256",
          "name": "",
          "type": "uint256"
        }
      ],
      "name": "deployedCampaigns",
      "outputs": [
        {
          "internalType": "contract Dfund",
          "name": "",
          "type": "address"
        }
      ],
      "stateMutability": "view",
      "type": "function",
      "constant": true
    },
    {
      "inputs": [
        {
          "internalType": "string",
          "name": "title",
          "type": "string"
        },
        {
          "internalType": "string",
          "name": "description",
          "type": "string"
        },
        {
          "internalType": "string",
          "name": "category",
          "type": "string"
        },
        {
          "internalType": "string",
          "name": "country",
          "type": "string"
        },
        {
          "internalType": "uint256",
          "name": "goalAmount",
          "type": "uint256"
        },
        {
          "internalType": "uint256",
          "name": "minimumContrubution",
          "type": "uint256"
        },
        {
          "internalType": "uint256",
          "name": "deadline",
          "type": "uint256"
        },
        {
          "internalType": "string",
          "name": "imageHash",
          "type": "string"
        }
      ],
      "name": "createCampaign",
      "outputs": [],
      "stateMutability": "nonpayable",
      "type": "function"
    },
    {
      "inputs": [],
      "name": "getDeployedCampaigns",
      "outputs": [
        {
          "internalType": "contract Dfund[]",
          "name": "",
          "type": "address[]"
        }
      ],
      "stateMutability": "view",
      "type": "function",
      "constant": true
    }
  ],
  "bytecode": "0x608060405234801561001057600080fd5b5061278e806100206000396000f3fe60806040523480156200001157600080fd5b5060043610620000465760003560e01c8063339d50a5146200004b5780634acb9d4f14620000a6578063d55668151462000109575b600080fd5b6200007a600480360360208110156200006357600080fd5b810190808035906020019092919050505062000451565b604051808273ffffffffffffffffffffffffffffffffffffffff16815260200191505060405180910390f35b620000b06200048e565b6040518080602001828103825283818151815260200191508051906020019060200280838360005b83811015620000f5578082015181840152602081019050620000d8565b505050509050019250505060405180910390f35b6200044f60048036036101008110156200012257600080fd5b81019080803590602001906401000000008111156200014057600080fd5b8201836020820111156200015357600080fd5b803590602001918460018302840111640100000000831117156200017657600080fd5b91908080601f016020809104026020016040519081016040528093929190818152602001838380828437600081840152601f19601f82011690508083019250505050505050919291929080359060200190640100000000811115620001da57600080fd5b820183602082011115620001ed57600080fd5b803590602001918460018302840111640100000000831117156200021057600080fd5b91908080601f016020809104026020016040519081016040528093929190818152602001838380828437600081840152601f19601f820116905080830192505050505050509192919290803590602001906401000000008111156200027457600080fd5b8201836020820111156200028757600080fd5b80359060200191846001830284011164010000000083111715620002aa57600080fd5b91908080601f016020809104026020016040519081016040528093929190818152602001838380828437600081840152601f19601f820116905080830192505050505050509192919290803590602001906401000000008111156200030e57600080fd5b8201836020820111156200032157600080fd5b803590602001918460018302840111640100000000831117156200034457600080fd5b91908080601f016020809104026020016040519081016040528093929190818152602001838380828437600081840152601f19601f82011690508083019250505050505050919291929080359060200190929190803590602001909291908035906020019092919080359060200190640100000000811115620003c657600080fd5b820183602082011115620003d957600080fd5b80359060200191846001830284011164010000000083111715620003fc57600080fd5b91908080601f016020809104026020016040519081016040528093929190818152602001838380828437600081840152601f19601f8201169050808301925050505050505091929192905050506200051e565b005b600081815481106200045f57fe5b906000526020600020016000915054906101000a900473ffffffffffffffffffffffffffffffffffffffff1681565b606060008054806020026020016040519081016040528092919081815260200182805480156200051457602002820191906000526020600020905b8160009054906101000a900473ffffffffffffffffffffffffffffffffffffffff1673ffffffffffffffffffffffffffffffffffffffff1681526020019060010190808311620004c9575b5050505050905090565b6000841162000578577fa2db52a45d71264723caeac03c235d51bb30cff5e1ac71c97a5842ec94fbb6af60405180806020018281038252602b815260200180620026f6602b913960400191505060405180910390a1600080fd5b814310620005d1577fa2db52a45d71264723caeac03c235d51bb30cff5e1ac71c97a5842ec94fbb6af604051808060200182810382526038815260200180620027216038913960400191505060405180910390a1600080fd5b6000338989898989898989604051620005ea9062000b8b565b808a73ffffffffffffffffffffffffffffffffffffffff168152602001806020018060200180602001806020018981526020018881526020018781526020018060200186810386528e818151815260200191508051906020019080838360005b83811015620006675780820151818401526020810190506200064a565b50505050905090810190601f168015620006955780820380516001836020036101000a031916815260200191505b5086810385528d818151815260200191508051906020019080838360005b83811015620006d0578082015181840152602081019050620006b3565b50505050905090810190601f168015620006fe5780820380516001836020036101000a031916815260200191505b5086810384528c818151815260200191508051906020019080838360005b83811015620007395780820151818401526020810190506200071c565b50505050905090810190601f168015620007675780820380516001836020036101000a031916815260200191505b5086810383528b818151815260200191508051906020019080838360005b83811015620007a257808201518184015260208101905062000785565b50505050905090810190601f168015620007d05780820380516001836020036101000a031916815260200191505b50868103825287818151815260200191508051906020019080838360005b838110156200080b578082015181840152602081019050620007ee565b50505050905090810190601f168015620008395780820380516001836020036101000a031916815260200191505b509e505050505050505050505050505050604051809103906000f08015801562000867573d6000803e3d6000fd5b5090506000819080600181540180825580915050600190039060005260206000200160009091909190916101000a81548173ffffffffffffffffffffffffffffffffffffffff021916908373ffffffffffffffffffffffffffffffffffffffff1602179055507f8eaac830aced1182787cc3503388c9af5122e2584fa177910beca80b0a9b0bbb81338b8b8989898d8f8b604051808b73ffffffffffffffffffffffffffffffffffffffff1681526020018a73ffffffffffffffffffffffffffffffffffffffff168152602001806020018060200189815260200188815260200187815260200180602001806020018060200186810386528e818151815260200191508051906020019080838360005b838110156200099457808201518184015260208101905062000977565b50505050905090810190601f168015620009c25780820380516001836020036101000a031916815260200191505b5086810385528d818151815260200191508051906020019080838360005b83811015620009fd578082015181840152602081019050620009e0565b50505050905090810190601f16801562000a2b5780820380516001836020036101000a031916815260200191505b50868103845289818151815260200191508051906020019080838360005b8381101562000a6657808201518184015260208101905062000a49565b50505050905090810190601f16801562000a945780820380516001836020036101000a031916815260200191505b50868103835288818151815260200191508051906020019080838360005b8381101562000acf57808201518184015260208101905062000ab2565b50505050905090810190601f16801562000afd5780820380516001836020036101000a031916815260200191505b50868103825287818151815260200191508051906020019080838360005b8381101562000b3857808201518184015260208101905062000b1b565b50505050905090810190601f16801562000b665780820380516001836020036101000a031916815260200191505b509f5050505050505050505050505050505060405180910390a1505050505050505050565b611b5c8062000b9a8339019056fe60806040523480156200001157600080fd5b5060405162001b5c38038062001b5c83398181016040526101208110156200003857600080fd5b8101908080519060200190929190805160405193929190846401000000008211156200006357600080fd5b838201915060208201858111156200007a57600080fd5b82518660018202830111640100000000821117156200009857600080fd5b8083526020830192505050908051906020019080838360005b83811015620000ce578082015181840152602081019050620000b1565b50505050905090810190601f168015620000fc5780820380516001836020036101000a031916815260200191505b50604052602001805160405193929190846401000000008211156200012057600080fd5b838201915060208201858111156200013757600080fd5b82518660018202830111640100000000821117156200015557600080fd5b8083526020830192505050908051906020019080838360005b838110156200018b5780820151818401526020810190506200016e565b50505050905090810190601f168015620001b95780820380516001836020036101000a031916815260200191505b5060405260200180516040519392919084640100000000821115620001dd57600080fd5b83820191506020820185811115620001f457600080fd5b82518660018202830111640100000000821117156200021257600080fd5b8083526020830192505050908051906020019080838360005b83811015620002485780820151818401526020810190506200022b565b50505050905090810190601f168015620002765780820380516001836020036101000a031916815260200191505b50604052602001805160405193929190846401000000008211156200029a57600080fd5b83820191506020820185811115620002b157600080fd5b8251866001820283011164010000000082111715620002cf57600080fd5b8083526020830192505050908051906020019080838360005b8381101562000305578082015181840152602081019050620002e8565b50505050905090810190601f168015620003335780820380516001836020036101000a031916815260200191505b50604052602001805190602001909291908051906020019092919080519060200190929190805160405193929190846401000000008211156200037557600080fd5b838201915060208201858111156200038c57600080fd5b8251866001820283011164010000000082111715620003aa57600080fd5b8083526020830192505050908051906020019080838360005b83811015620003e0578082015181840152602081019050620003c3565b50505050905090810190601f1680156200040e5780820380516001836020036101000a031916815260200191505b506040525050506040518061014001604052808a73ffffffffffffffffffffffffffffffffffffffff168152602001898152602001888152602001878152602001868152602001858152602001848152602001838152602001600115158152602001828152506000808201518160000160006101000a81548173ffffffffffffffffffffffffffffffffffffffff021916908373ffffffffffffffffffffffffffffffffffffffff1602179055506020820151816001019080519060200190620004da929190620005a9565b506040820151816002019080519060200190620004f9929190620005a9565b50606082015181600301908051906020019062000518929190620005a9565b50608082015181600401908051906020019062000537929190620005a9565b5060a0820151816005015560c0820151816006015560e082015181600701556101008201518160080160006101000a81548160ff02191690831515021790555061012082015181600901908051906020019062000596929190620005a9565b509050505050505050505050506200064f565b828054600181600116156101000203166002900490600052602060002090601f016020900481019282601f10620005ec57805160ff19168380011785556200061d565b828001600101855582156200061d579182015b828111156200061c578251825591602001919060010190620005ff565b5b5090506200062c919062000630565b5090565b5b808211156200064b57600081600090555060010162000631565b5090565b6114fd806200065f6000396000f3fe6080604052600436106100ab5760003560e01c806381d12c581161006457806381d12c581461047557806382fde0931461055d5780638a9cfd55146105885780639e025bc31461067a578063b60d4288146106b5578063d7d1bbdb146106bf576100b5565b80630a144391146100ba5780631cee0700146101215780633410452a1461018d57806341c0e1b5146101b85780635b18056b146101cf578063811e539c146101fa576100b5565b366100b557600080fd5b600080fd5b3480156100c657600080fd5b50610109600480360360208110156100dd57600080fd5b81019080803573ffffffffffffffffffffffffffffffffffffffff1690602001909291905050506106fa565b60405180821515815260200191505060405180910390f35b34801561012d57600080fd5b5061015a6004803603602081101561014457600080fd5b810190808035906020019092919050505061071a565b604051808381526020018273ffffffffffffffffffffffffffffffffffffffff1681526020019250505060405180910390f35b34801561019957600080fd5b506101a261075e565b6040518082815260200191505060405180910390f35b3480156101c457600080fd5b506101cd61076b565b005b3480156101db57600080fd5b506101e4610804565b6040518082815260200191505060405180910390f35b34801561020657600080fd5b5061020f61080a565b604051808b73ffffffffffffffffffffffffffffffffffffffff168152602001806020018060200180602001806020018a815260200189815260200188815260200187151581526020018060200186810386528f818151815260200191508051906020019080838360005b8381101561029557808201518184015260208101905061027a565b50505050905090810190601f1680156102c25780820380516001836020036101000a031916815260200191505b5086810385528e818151815260200191508051906020019080838360005b838110156102fb5780820151818401526020810190506102e0565b50505050905090810190601f1680156103285780820380516001836020036101000a031916815260200191505b5086810384528d818151815260200191508051906020019080838360005b83811015610361578082015181840152602081019050610346565b50505050905090810190601f16801561038e5780820380516001836020036101000a031916815260200191505b5086810383528c818151815260200191508051906020019080838360005b838110156103c75780820151818401526020810190506103ac565b50505050905090810190601f1680156103f45780820380516001836020036101000a031916815260200191505b50868103825287818151815260200191508051906020019080838360005b8381101561042d578082015181840152602081019050610412565b50505050905090810190601f16801561045a5780820380516001836020036101000a031916815260200191505b509f5050505050505050505050505050505060405180910390f35b34801561048157600080fd5b506104ae6004803603602081101561049857600080fd5b8101908080359060200190929190505050610b71565b60405180806020018681526020018573ffffffffffffffffffffffffffffffffffffffff1681526020018415158152602001838152602001828103825287818151815260200191508051906020019080838360005b8381101561051e578082015181840152602081019050610503565b50505050905090810190601f16801561054b5780820380516001836020036101000a031916815260200191505b50965050505050505060405180910390f35b34801561056957600080fd5b50610572610c79565b6040518082815260200191505060405180910390f35b34801561059457600080fd5b50610678600480360360608110156105ab57600080fd5b81019080803590602001906401000000008111156105c857600080fd5b8201836020820111156105da57600080fd5b803590602001918460018302840111640100000000831117156105fc57600080fd5b91908080601f016020809104026020016040519081016040528093929190818152602001838380828437600081840152601f19601f82011690508083019250505050505050919291929080359060200190929190803573ffffffffffffffffffffffffffffffffffffffff169060200190929190505050610c7f565b005b34801561068657600080fd5b506106b36004803603602081101561069d57600080fd5b8101908080359060200190929190505050610ef6565b005b6106bd611065565b005b3480156106cb57600080fd5b506106f8600480360360208110156106e257600080fd5b810190808035906020019092919050505061124f565b005b600d6020528060005260406000206000915054906101000a900460ff1681565b600b6020528060005260406000206000915090508060000154908060010160009054906101000a900473ffffffffffffffffffffffffffffffffffffffff16905082565b6000600a80549050905090565b6000800160009054906101000a900473ffffffffffffffffffffffffffffffffffffffff1673ffffffffffffffffffffffffffffffffffffffff163373ffffffffffffffffffffffffffffffffffffffff16146107c757600080fd5b6000800160009054906101000a900473ffffffffffffffffffffffffffffffffffffffff1673ffffffffffffffffffffffffffffffffffffffff16ff5b600c5481565b60008060000160009054906101000a900473ffffffffffffffffffffffffffffffffffffffff1690806001018054600181600116156101000203166002900480601f0160208091040260200160405190810160405280929190818152602001828054600181600116156101000203166002900480156108ca5780601f1061089f576101008083540402835291602001916108ca565b820191906000526020600020905b8154815290600101906020018083116108ad57829003601f168201915b505050505090806002018054600181600116156101000203166002900480601f0160208091040260200160405190810160405280929190818152602001828054600181600116156101000203166002900480156109685780601f1061093d57610100808354040283529160200191610968565b820191906000526020600020905b81548152906001019060200180831161094b57829003601f168201915b505050505090806003018054600181600116156101000203166002900480601f016020809104026020016040519081016040528092919081815260200182805460018160011615610100020316600290048015610a065780601f106109db57610100808354040283529160200191610a06565b820191906000526020600020905b8154815290600101906020018083116109e957829003601f168201915b505050505090806004018054600181600116156101000203166002900480601f016020809104026020016040519081016040528092919081815260200182805460018160011615610100020316600290048015610aa45780601f10610a7957610100808354040283529160200191610aa4565b820191906000526020600020905b815481529060010190602001808311610a8757829003601f168201915b5050505050908060050154908060060154908060070154908060080160009054906101000a900460ff1690806009018054600181600116156101000203166002900480601f016020809104026020016040519081016040528092919081815260200182805460018160011615610100020316600290048015610b675780601f10610b3c57610100808354040283529160200191610b67565b820191906000526020600020905b815481529060010190602001808311610b4a57829003601f168201915b505050505090508a565b600a8181548110610b7e57fe5b9060005260206000209060050201600091509050806000018054600181600116156101000203166002900480601f016020809104026020016040519081016040528092919081815260200182805460018160011615610100020316600290048015610c2a5780601f10610bff57610100808354040283529160200191610c2a565b820191906000526020600020905b815481529060010190602001808311610c0d57829003601f168201915b5050505050908060010154908060020160009054906101000a900473ffffffffffffffffffffffffffffffffffffffff16908060020160149054906101000a900460ff16908060030154905085565b600e5481565b6000800160009054906101000a900473ffffffffffffffffffffffffffffffffffffffff1673ffffffffffffffffffffffffffffffffffffffff163373ffffffffffffffffffffffffffffffffffffffff1614610cdb57600080fd5b610ce36113bb565b6040518060a001604052808581526020018481526020018373ffffffffffffffffffffffffffffffffffffffff16815260200160001515815260200160008152509050600a8190806001815401808255809150506001900390600052602060002090600502016000909190919091506000820151816000019080519060200190610d6e929190611402565b506020820151816001015560408201518160020160006101000a81548173ffffffffffffffffffffffffffffffffffffffff021916908373ffffffffffffffffffffffffffffffffffffffff16021790555060608201518160020160146101000a81548160ff0219169083151502179055506080820151816003015550507f67073624e468d4617082c5288665c8236f057014fcba06e36bb847fa0957711c6000800160009054906101000a900473ffffffffffffffffffffffffffffffffffffffff16858585604051808573ffffffffffffffffffffffffffffffffffffffff168152602001806020018481526020018373ffffffffffffffffffffffffffffffffffffffff168152602001828103825285818151815260200191508051906020019080838360005b83811015610eb3578082015181840152602081019050610e98565b50505050905090810190601f168015610ee05780820380516001836020036101000a031916815260200191505b509550505050505060405180910390a150505050565b6000800160009054906101000a900473ffffffffffffffffffffffffffffffffffffffff1673ffffffffffffffffffffffffffffffffffffffff163373ffffffffffffffffffffffffffffffffffffffff1614610f5257600080fd5b6000600a8281548110610f6157fe5b906000526020600020906005020190506002600e5481610f7d57fe5b04816003015411610f8d57600080fd5b8060020160149054906101000a900460ff1615610fa957600080fd5b8060020160009054906101000a900473ffffffffffffffffffffffffffffffffffffffff1673ffffffffffffffffffffffffffffffffffffffff166108fc82600101549081150290604051600060405180830381858888f19350505050158015611017573d6000803e3d6000fd5b5060018160020160146101000a81548160ff0219169083151502179055507f32409d5cdf5f43ee8459ad132da452ca0c5f87b1aace47691231efb0685c411f60405160405180910390a15050565b600034116110bd577fa2db52a45d71264723caeac03c235d51bb30cff5e1ac71c97a5842ec94fbb6af6040518080602001828103825260288152602001806114a06028913960400191505060405180910390a1600080fd5b6000600601543410611134576001600d60003373ffffffffffffffffffffffffffffffffffffffff1673ffffffffffffffffffffffffffffffffffffffff16815260200190815260200160002060006101000a81548160ff021916908315150217905550600e600081548092919060010191905055505b600c6000815480929190600101919050555060405180604001604052803481526020013373ffffffffffffffffffffffffffffffffffffffff16815250600b6000600c5481526020019081526020016000206000820151816000015560208201518160010160006101000a81548173ffffffffffffffffffffffffffffffffffffffff021916908373ffffffffffffffffffffffffffffffffffffffff1602179055509050507f39f7b6bb5cccf15345de2c840895996ec35ca04ec42a98491662b55aa34421b4303334604051808473ffffffffffffffffffffffffffffffffffffffff1681526020018373ffffffffffffffffffffffffffffffffffffffff168152602001828152602001935050505060405180910390a1565b6000600a828154811061125e57fe5b90600052602060002090600502019050600d60003373ffffffffffffffffffffffffffffffffffffffff1673ffffffffffffffffffffffffffffffffffffffff16815260200190815260200160002060009054906101000a900460ff166112c457600080fd5b8060040160003373ffffffffffffffffffffffffffffffffffffffff1673ffffffffffffffffffffffffffffffffffffffff16815260200190815260200160002060009054906101000a900460ff161561131d57600080fd5b60018160040160003373ffffffffffffffffffffffffffffffffffffffff1673ffffffffffffffffffffffffffffffffffffffff16815260200190815260200160002060006101000a81548160ff02191690831515021790555080600301600081548092919060010191905055507f1e3f208ee2a4fdd402e02558472a80f05d15a59bff0bdf369ae93eb9bab33a6c60405160405180910390a15050565b6040518060a001604052806060815260200160008152602001600073ffffffffffffffffffffffffffffffffffffffff168152602001600015158152602001600081525090565b828054600181600116156101000203166002900490600052602060002090601f016020900481019282601f1061144357805160ff1916838001178555611471565b82800160010185558215611471579182015b82811115611470578251825591602001919060010190611455565b5b50905061147e9190611482565b5090565b5b8082111561149b576000816000905550600101611483565b509056fe436f6e747269627574696f6e73206d7573742062652067726561746572207468616e203020776569a2646970667358221220901368c8fa2ef954b632de0bebe4b2680da02a7fb7fa51ff6d32cea6871e491964736f6c634300060c003343616d706169676e20676f616c20616d6f756e74206d7573742062652067726561746572207468616e203043616d706169676e20646561646c696e65206d7573742062652067726561746572207468616e207468652063757272656e7420626c6f636ba264697066735822122081bc10de52c45f24178bb77ce31e218b7dfd7edf06c3ad6fc6a4ddbda860604964736f6c634300060c0033",
  "immutableReferences": {},
  "source": "// SPDX-License-Identifier: MIT\r\npragma solidity ^0.6.0;\r\nimport \"./Dfund.sol\";\r\n\r\n/// @title Dfund smart contract\r\n/// @notice crowdfunding smart contract\r\n/// @author Deepak Oli\r\n\r\ncontract DfundFactory{\r\n    Dfund[] public deployedCampaigns;\r\n\r\n       event LogCampaignCreated(\r\n        address addr,\r\n        address payable creator,\r\n        string title,\r\n        string description,\r\n        uint goalAmount,\r\n        uint minimumContribution,\r\n        uint deadline,\r\n        string country,\r\n        string category,\r\n        string imageHash\r\n    );\r\n\r\n    event LogFailure(string message);\r\n    \r\n    /// @notice create campaign and save in network\r\n    /// @param title campaign title\r\n    /// @param description description of campaign\r\n    /// @param category category to which campaign belong\r\n    /// @param country country of origin\r\n    /// @param goalAmount goal amount of campaign\r\n    /// @param minimumContrubution minimun contribution which determines approver\r\n    /// @param deadline end date of campaign\r\n    /// @param imageHash image hash string\r\n    function createCampaign(\r\n        string memory title,\r\n        string memory description,\r\n        string memory category,\r\n        string memory country,\r\n        uint goalAmount,\r\n        uint minimumContrubution,\r\n        uint deadline,\r\n        string memory imageHash\r\n    ) public{\r\n\r\n         if (goalAmount <= 0) {\r\n            LogFailure(\"Campaign goal amount must be greater than 0\");\r\n             revert();\r\n        }\r\n\r\n        if (block.number >= deadline) {\r\n            LogFailure(\"Campaign deadline must be greater than the current block\");\r\n            revert();\r\n        }\r\n\r\n        Dfund newCampaign = new Dfund({\r\n            creator:msg.sender,\r\n            title:title,\r\n            description:description,\r\n            category:category,\r\n            country:country,\r\n            goalAmount:goalAmount,\r\n            minimumContrubution: minimumContrubution,\r\n            deadline: deadline,\r\n            imageHash:imageHash\r\n        });\r\n        \r\n        deployedCampaigns.push(newCampaign);\r\n\r\n        emit LogCampaignCreated(\r\n            address(newCampaign),\r\n            msg.sender,\r\n            title,\r\n            description,\r\n            goalAmount,\r\n            minimumContrubution,\r\n            deadline,\r\n            country,\r\n            category,\r\n            imageHash\r\n        );\r\n    }\r\n    \r\n    /// @return array of deployed campaign addresses\r\n    function getDeployedCampaigns() public view returns(Dfund[] memory){\r\n       return deployedCampaigns; \r\n    }\r\n}\r\n",
  "sourcePath": "C:/Users/Deepa/Desktop/dfund_application/contracts/DfundFactory.sol",
  "compiler": {
    "name": "solc",
    "version": "0.6.12+commit.27d51765.Emscripten.clang"
  },
  "schemaVersion": "3.3.1",
  "updatedAt": "2021-01-29T10:57:01.695Z",
  "networkType": "ethereum",
  "devdoc": {
    "author": "Deepak Oli",
    "kind": "dev",
    "methods": {
      "createCampaign(string,string,string,string,uint256,uint256,uint256,string)": {
        "params": {
          "category": "category to which campaign belong",
          "country": "country of origin",
          "deadline": "end date of campaign",
          "description": "description of campaign",
          "goalAmount": "goal amount of campaign",
          "imageHash": "image hash string",
          "minimumContrubution": "minimun contribution which determines approver",
          "title": "campaign title"
        }
      },
      "getDeployedCampaigns()": {
        "returns": {
          "_0": "array of deployed campaign addresses"
        }
      }
    },
    "title": "Dfund smart contract",
    "version": 1
  },
  "userdoc": {
    "kind": "user",
    "methods": {
      "createCampaign(string,string,string,string,uint256,uint256,uint256,string)": {
        "notice": "create campaign and save in network"
      }
    },
    "notice": "crowdfunding smart contract",
    "version": 1
  }
}