{
  "contractName": "Dfund",
  "abi": [
    {
      "inputs": [
        {
          "internalType": "address",
          "name": "creator",
          "type": "address"
        },
        {
          "internalType": "string",
          "name": "title",
          "type": "string"
        },
        {
          "internalType": "string",
          "name": "description",
          "type": "string"
        },
        {
          "internalType": "string",
          "name": "category",
          "type": "string"
        },
        {
          "internalType": "string",
          "name": "country",
          "type": "string"
        },
        {
          "internalType": "uint256",
          "name": "goalAmount",
          "type": "uint256"
        },
        {
          "internalType": "uint256",
          "name": "minimumContrubution",
          "type": "uint256"
        },
        {
          "internalType": "uint256",
          "name": "deadline",
          "type": "uint256"
        },
        {
          "internalType": "string",
          "name": "imageHash",
          "type": "string"
        }
      ],
      "stateMutability": "nonpayable",
      "type": "constructor"
    },
    {
      "anonymous": false,
      "inputs": [
        {
          "indexed": false,
          "internalType": "uint256",
          "name": "id",
          "type": "uint256"
        },
        {
          "indexed": false,
          "internalType": "string",
          "name": "title",
          "type": "string"
        },
        {
          "indexed": false,
          "internalType": "address",
          "name": "addr",
          "type": "address"
        },
        {
          "indexed": false,
          "internalType": "address",
          "name": "creator",
          "type": "address"
        }
      ],
      "name": "LogCampaignCreated",
      "type": "event"
    },
    {
      "anonymous": false,
      "inputs": [
        {
          "indexed": false,
          "internalType": "address",
          "name": "projectAddress",
          "type": "address"
        },
        {
          "indexed": false,
          "internalType": "address",
          "name": "contributor",
          "type": "address"
        },
        {
          "indexed": false,
          "internalType": "uint256",
          "name": "amount",
          "type": "uint256"
        }
      ],
      "name": "LogContributionSent",
      "type": "event"
    },
    {
      "anonymous": false,
      "inputs": [
        {
          "indexed": false,
          "internalType": "string",
          "name": "message",
          "type": "string"
        }
      ],
      "name": "LogFailure",
      "type": "event"
    },
    {
      "anonymous": false,
      "inputs": [],
      "name": "LogRequestApproved",
      "type": "event"
    },
    {
      "anonymous": false,
      "inputs": [],
      "name": "LogRequestCreated",
      "type": "event"
    },
    {
      "anonymous": false,
      "inputs": [],
      "name": "LogRequestFinilized",
      "type": "event"
    },
    {
      "inputs": [
        {
          "internalType": "address",
          "name": "",
          "type": "address"
        }
      ],
      "name": "approvers",
      "outputs": [
        {
          "internalType": "bool",
          "name": "",
          "type": "bool"
        }
      ],
      "stateMutability": "view",
      "type": "function"
    },
    {
      "inputs": [],
      "name": "approversCount",
      "outputs": [
        {
          "internalType": "uint256",
          "name": "",
          "type": "uint256"
        }
      ],
      "stateMutability": "view",
      "type": "function"
    },
    {
      "inputs": [],
      "name": "campaign",
      "outputs": [
        {
          "internalType": "address payable",
          "name": "creator",
          "type": "address"
        },
        {
          "internalType": "string",
          "name": "title",
          "type": "string"
        },
        {
          "internalType": "string",
          "name": "description",
          "type": "string"
        },
        {
          "internalType": "string",
          "name": "category",
          "type": "string"
        },
        {
          "internalType": "string",
          "name": "country",
          "type": "string"
        },
        {
          "internalType": "uint256",
          "name": "goalAmount",
          "type": "uint256"
        },
        {
          "internalType": "uint256",
          "name": "minimumContrubution",
          "type": "uint256"
        },
        {
          "internalType": "uint256",
          "name": "deadline",
          "type": "uint256"
        },
        {
          "internalType": "bool",
          "name": "active",
          "type": "bool"
        },
        {
          "internalType": "string",
          "name": "imageHash",
          "type": "string"
        }
      ],
      "stateMutability": "view",
      "type": "function"
    },
    {
      "inputs": [],
      "name": "contributionCount",
      "outputs": [
        {
          "internalType": "uint256",
          "name": "",
          "type": "uint256"
        }
      ],
      "stateMutability": "view",
      "type": "function"
    },
    {
      "inputs": [
        {
          "internalType": "uint256",
          "name": "",
          "type": "uint256"
        }
      ],
      "name": "contributions",
      "outputs": [
        {
          "internalType": "uint256",
          "name": "amount",
          "type": "uint256"
        },
        {
          "internalType": "address",
          "name": "contributor",
          "type": "address"
        }
      ],
      "stateMutability": "view",
      "type": "function"
    },
    {
      "inputs": [
        {
          "internalType": "uint256",
          "name": "",
          "type": "uint256"
        }
      ],
      "name": "requests",
      "outputs": [
        {
          "internalType": "string",
          "name": "description",
          "type": "string"
        },
        {
          "internalType": "uint256",
          "name": "value",
          "type": "uint256"
        },
        {
          "internalType": "address payable",
          "name": "recipient",
          "type": "address"
        },
        {
          "internalType": "bool",
          "name": "complete",
          "type": "bool"
        },
        {
          "internalType": "uint256",
          "name": "approvalCount",
          "type": "uint256"
        }
      ],
      "stateMutability": "view",
      "type": "function"
    },
    {
      "inputs": [],
      "name": "fund",
      "outputs": [],
      "stateMutability": "payable",
      "type": "function"
    },
    {
      "inputs": [
        {
          "internalType": "string",
          "name": "description",
          "type": "string"
        },
        {
          "internalType": "uint256",
          "name": "value",
          "type": "uint256"
        },
        {
          "internalType": "address payable",
          "name": "recipient",
          "type": "address"
        }
      ],
      "name": "createRequest",
      "outputs": [],
      "stateMutability": "nonpayable",
      "type": "function"
    },
    {
      "inputs": [
        {
          "internalType": "uint256",
          "name": "index",
          "type": "uint256"
        }
      ],
      "name": "approveRequest",
      "outputs": [],
      "stateMutability": "nonpayable",
      "type": "function"
    },
    {
      "inputs": [
        {
          "internalType": "uint256",
          "name": "index",
          "type": "uint256"
        }
      ],
      "name": "finializeRequest",
      "outputs": [],
      "stateMutability": "nonpayable",
      "type": "function"
    },
    {
      "inputs": [],
      "name": "kill",
      "outputs": [],
      "stateMutability": "nonpayable",
      "type": "function"
    }
  ],
  "bytecode": "0x60806040523480156200001157600080fd5b50604051620018bc380380620018bc83398181016040526101208110156200003857600080fd5b8101908080519060200190929190805160405193929190846401000000008211156200006357600080fd5b838201915060208201858111156200007a57600080fd5b82518660018202830111640100000000821117156200009857600080fd5b8083526020830192505050908051906020019080838360005b83811015620000ce578082015181840152602081019050620000b1565b50505050905090810190601f168015620000fc5780820380516001836020036101000a031916815260200191505b50604052602001805160405193929190846401000000008211156200012057600080fd5b838201915060208201858111156200013757600080fd5b82518660018202830111640100000000821117156200015557600080fd5b8083526020830192505050908051906020019080838360005b838110156200018b5780820151818401526020810190506200016e565b50505050905090810190601f168015620001b95780820380516001836020036101000a031916815260200191505b5060405260200180516040519392919084640100000000821115620001dd57600080fd5b83820191506020820185811115620001f457600080fd5b82518660018202830111640100000000821117156200021257600080fd5b8083526020830192505050908051906020019080838360005b83811015620002485780820151818401526020810190506200022b565b50505050905090810190601f168015620002765780820380516001836020036101000a031916815260200191505b50604052602001805160405193929190846401000000008211156200029a57600080fd5b83820191506020820185811115620002b157600080fd5b8251866001820283011164010000000082111715620002cf57600080fd5b8083526020830192505050908051906020019080838360005b8381101562000305578082015181840152602081019050620002e8565b50505050905090810190601f168015620003335780820380516001836020036101000a031916815260200191505b50604052602001805190602001909291908051906020019092919080519060200190929190805160405193929190846401000000008211156200037557600080fd5b838201915060208201858111156200038c57600080fd5b8251866001820283011164010000000082111715620003aa57600080fd5b8083526020830192505050908051906020019080838360005b83811015620003e0578082015181840152602081019050620003c3565b50505050905090810190601f1680156200040e5780820380516001836020036101000a031916815260200191505b506040525050506040518061014001604052808a73ffffffffffffffffffffffffffffffffffffffff168152602001898152602001888152602001878152602001868152602001858152602001848152602001838152602001600115158152602001828152506000808201518160000160006101000a81548173ffffffffffffffffffffffffffffffffffffffff021916908373ffffffffffffffffffffffffffffffffffffffff1602179055506020820151816001019080519060200190620004da929190620005a9565b506040820151816002019080519060200190620004f9929190620005a9565b50606082015181600301908051906020019062000518929190620005a9565b50608082015181600401908051906020019062000537929190620005a9565b5060a0820151816005015560c0820151816006015560e082015181600701556101008201518160080160006101000a81548160ff02191690831515021790555061012082015181600901908051906020019062000596929190620005a9565b509050505050505050505050506200064f565b828054600181600116156101000203166002900490600052602060002090601f016020900481019282601f10620005ec57805160ff19168380011785556200061d565b828001600101855582156200061d579182015b828111156200061c578251825591602001919060010190620005ff565b5b5090506200062c919062000630565b5090565b5b808211156200064b57600081600090555060010162000631565b5090565b61125d806200065f6000396000f3fe60806040526004361061009c5760003560e01c806381d12c581161006457806381d12c581461043157806382fde093146105195780638a9cfd55146105445780639e025bc314610636578063b60d428814610671578063d7d1bbdb1461067b5761009c565b80630a144391146100a15780631cee07001461010857806341c0e1b5146101745780635b18056b1461018b578063811e539c146101b6575b600080fd5b3480156100ad57600080fd5b506100f0600480360360208110156100c457600080fd5b81019080803573ffffffffffffffffffffffffffffffffffffffff1690602001909291905050506106b6565b60405180821515815260200191505060405180910390f35b34801561011457600080fd5b506101416004803603602081101561012b57600080fd5b81019080803590602001909291905050506106d6565b604051808381526020018273ffffffffffffffffffffffffffffffffffffffff1681526020019250505060405180910390f35b34801561018057600080fd5b5061018961071a565b005b34801561019757600080fd5b506101a06107b3565b6040518082815260200191505060405180910390f35b3480156101c257600080fd5b506101cb6107b9565b604051808b73ffffffffffffffffffffffffffffffffffffffff168152602001806020018060200180602001806020018a815260200189815260200188815260200187151581526020018060200186810386528f818151815260200191508051906020019080838360005b83811015610251578082015181840152602081019050610236565b50505050905090810190601f16801561027e5780820380516001836020036101000a031916815260200191505b5086810385528e818151815260200191508051906020019080838360005b838110156102b757808201518184015260208101905061029c565b50505050905090810190601f1680156102e45780820380516001836020036101000a031916815260200191505b5086810384528d818151815260200191508051906020019080838360005b8381101561031d578082015181840152602081019050610302565b50505050905090810190601f16801561034a5780820380516001836020036101000a031916815260200191505b5086810383528c818151815260200191508051906020019080838360005b83811015610383578082015181840152602081019050610368565b50505050905090810190601f1680156103b05780820380516001836020036101000a031916815260200191505b50868103825287818151815260200191508051906020019080838360005b838110156103e95780820151818401526020810190506103ce565b50505050905090810190601f1680156104165780820380516001836020036101000a031916815260200191505b509f5050505050505050505050505050505060405180910390f35b34801561043d57600080fd5b5061046a6004803603602081101561045457600080fd5b8101908080359060200190929190505050610b20565b60405180806020018681526020018573ffffffffffffffffffffffffffffffffffffffff1681526020018415158152602001838152602001828103825287818151815260200191508051906020019080838360005b838110156104da5780820151818401526020810190506104bf565b50505050905090810190601f1680156105075780820380516001836020036101000a031916815260200191505b50965050505050505060405180910390f35b34801561052557600080fd5b5061052e610c28565b6040518082815260200191505060405180910390f35b34801561055057600080fd5b506106346004803603606081101561056757600080fd5b810190808035906020019064010000000081111561058457600080fd5b82018360208201111561059657600080fd5b803590602001918460018302840111640100000000831117156105b857600080fd5b91908080601f016020809104026020016040519081016040528093929190818152602001838380828437600081840152601f19601f82011690508083019250505050505050919291929080359060200190929190803573ffffffffffffffffffffffffffffffffffffffff169060200190929190505050610c2e565b005b34801561064257600080fd5b5061066f6004803603602081101561065957600080fd5b8101908080359060200190929190505050610da1565b005b610679610ee4565b005b34801561068757600080fd5b506106b46004803603602081101561069e57600080fd5b8101908080359060200190929190505050611003565b005b600d6020528060005260406000206000915054906101000a900460ff1681565b600b6020528060005260406000206000915090508060000154908060010160009054906101000a900473ffffffffffffffffffffffffffffffffffffffff16905082565b6000800160009054906101000a900473ffffffffffffffffffffffffffffffffffffffff1673ffffffffffffffffffffffffffffffffffffffff163373ffffffffffffffffffffffffffffffffffffffff161461077657600080fd5b6000800160009054906101000a900473ffffffffffffffffffffffffffffffffffffffff1673ffffffffffffffffffffffffffffffffffffffff16ff5b600c5481565b60008060000160009054906101000a900473ffffffffffffffffffffffffffffffffffffffff1690806001018054600181600116156101000203166002900480601f0160208091040260200160405190810160405280929190818152602001828054600181600116156101000203166002900480156108795780601f1061084e57610100808354040283529160200191610879565b820191906000526020600020905b81548152906001019060200180831161085c57829003601f168201915b505050505090806002018054600181600116156101000203166002900480601f0160208091040260200160405190810160405280929190818152602001828054600181600116156101000203166002900480156109175780601f106108ec57610100808354040283529160200191610917565b820191906000526020600020905b8154815290600101906020018083116108fa57829003601f168201915b505050505090806003018054600181600116156101000203166002900480601f0160208091040260200160405190810160405280929190818152602001828054600181600116156101000203166002900480156109b55780601f1061098a576101008083540402835291602001916109b5565b820191906000526020600020905b81548152906001019060200180831161099857829003601f168201915b505050505090806004018054600181600116156101000203166002900480601f016020809104026020016040519081016040528092919081815260200182805460018160011615610100020316600290048015610a535780601f10610a2857610100808354040283529160200191610a53565b820191906000526020600020905b815481529060010190602001808311610a3657829003601f168201915b5050505050908060050154908060060154908060070154908060080160009054906101000a900460ff1690806009018054600181600116156101000203166002900480601f016020809104026020016040519081016040528092919081815260200182805460018160011615610100020316600290048015610b165780601f10610aeb57610100808354040283529160200191610b16565b820191906000526020600020905b815481529060010190602001808311610af957829003601f168201915b505050505090508a565b600a8181548110610b2d57fe5b9060005260206000209060050201600091509050806000018054600181600116156101000203166002900480601f016020809104026020016040519081016040528092919081815260200182805460018160011615610100020316600290048015610bd95780601f10610bae57610100808354040283529160200191610bd9565b820191906000526020600020905b815481529060010190602001808311610bbc57829003601f168201915b5050505050908060010154908060020160009054906101000a900473ffffffffffffffffffffffffffffffffffffffff16908060020160149054906101000a900460ff16908060030154905085565b600e5481565b6000800160009054906101000a900473ffffffffffffffffffffffffffffffffffffffff1673ffffffffffffffffffffffffffffffffffffffff163373ffffffffffffffffffffffffffffffffffffffff1614610c8a57600080fd5b610c92611143565b6040518060a001604052808581526020018481526020018373ffffffffffffffffffffffffffffffffffffffff16815260200160001515815260200160008152509050600a8190806001815401808255809150506001900390600052602060002090600502016000909190919091506000820151816000019080519060200190610d1d92919061118a565b506020820151816001015560408201518160020160006101000a81548173ffffffffffffffffffffffffffffffffffffffff021916908373ffffffffffffffffffffffffffffffffffffffff16021790555060608201518160020160146101000a81548160ff02191690831515021790555060808201518160030155505050505050565b6000800160009054906101000a900473ffffffffffffffffffffffffffffffffffffffff1673ffffffffffffffffffffffffffffffffffffffff163373ffffffffffffffffffffffffffffffffffffffff1614610dfd57600080fd5b6000600a8281548110610e0c57fe5b906000526020600020906005020190506002600e5481610e2857fe5b04816003015411610e3857600080fd5b8060020160149054906101000a900460ff1615610e5457600080fd5b8060020160009054906101000a900473ffffffffffffffffffffffffffffffffffffffff1673ffffffffffffffffffffffffffffffffffffffff166108fc82600101549081150290604051600060405180830381858888f19350505050158015610ec2573d6000803e3d6000fd5b5060018160020160146101000a81548160ff0219169083151502179055505050565b6000600601543410610f5b576001600d60003373ffffffffffffffffffffffffffffffffffffffff1673ffffffffffffffffffffffffffffffffffffffff16815260200190815260200160002060006101000a81548160ff021916908315150217905550600e600081548092919060010191905055505b600c6000815480929190600101919050555060405180604001604052803481526020013373ffffffffffffffffffffffffffffffffffffffff16815250600b6000600c5481526020019081526020016000206000820151816000015560208201518160010160006101000a81548173ffffffffffffffffffffffffffffffffffffffff021916908373ffffffffffffffffffffffffffffffffffffffff160217905550905050565b6000600a828154811061101257fe5b90600052602060002090600502019050600d60003373ffffffffffffffffffffffffffffffffffffffff1673ffffffffffffffffffffffffffffffffffffffff16815260200190815260200160002060009054906101000a900460ff1661107857600080fd5b8060040160003373ffffffffffffffffffffffffffffffffffffffff1673ffffffffffffffffffffffffffffffffffffffff16815260200190815260200160002060009054906101000a900460ff16156110d157600080fd5b60018160040160003373ffffffffffffffffffffffffffffffffffffffff1673ffffffffffffffffffffffffffffffffffffffff16815260200190815260200160002060006101000a81548160ff02191690831515021790555080600301600081548092919060010191905055505050565b6040518060a001604052806060815260200160008152602001600073ffffffffffffffffffffffffffffffffffffffff168152602001600015158152602001600081525090565b828054600181600116156101000203166002900490600052602060002090601f016020900481019282601f106111cb57805160ff19168380011785556111f9565b828001600101855582156111f9579182015b828111156111f85782518255916020019190600101906111dd565b5b509050611206919061120a565b5090565b5b8082111561122357600081600090555060010161120b565b509056fea26469706673582212205f44b1ba04acbbcf383bf45c8ce2665254483f2310c7fdd864f64cae5485edc864736f6c634300060c0033",
  "immutableReferences": {},
  "source": "// SPDX-License-Identifier: MIT\r\npragma solidity ^0.6.0;\r\n\r\ncontract Dfund{\r\n    \r\n    struct Campaign{\r\n        address payable creator;\r\n        string title;\r\n        string description;\r\n        string category;\r\n        string country;\r\n        uint goalAmount;\r\n        uint minimumContrubution;\r\n        uint deadline;\r\n        bool active;\r\n        string imageHash;\r\n    }\r\n    \r\n    struct Contribution {\r\n        uint amount;\r\n        address contributor;\r\n    }\r\n    \r\n    struct Request {\r\n        string description;\r\n        uint value;\r\n        address payable recipient;\r\n        bool complete;\r\n        uint approvalCount;\r\n        mapping(address => bool) approvals;\r\n    }\r\n    \r\n    Campaign public campaign;\r\n    Request[] public requests;\r\n    mapping (uint => Contribution) public contributions;\r\n    uint public contributionCount;\r\n    \r\n    mapping(address => bool) public approvers;\r\n    uint public approversCount;\r\n    \r\n    event LogCampaignCreated(uint id, string title, address addr, address creator);\r\n    event LogContributionSent(address projectAddress, address contributor, uint amount);\r\n    event LogRequestCreated();\r\n    event LogRequestFinilized();\r\n    event LogRequestApproved();\r\n\r\n    event LogFailure(string message);\r\n    \r\n    \r\n    \r\n    modifier isCreator {\r\n         require(msg.sender == campaign.creator);\r\n        _;\r\n    }\r\n    \r\n    \r\n    constructor(\r\n        address creator,\r\n        string memory title,\r\n        string memory description,\r\n        string memory category,\r\n        string memory country,\r\n        uint goalAmount,\r\n        uint minimumContrubution,\r\n        uint deadline,\r\n        string memory imageHash\r\n    )\r\n        public\r\n    {\r\n        campaign = Campaign({\r\n            creator:address(uint160(creator)),\r\n            title:title,\r\n            description:description,\r\n            category:category,\r\n            country:country,\r\n            imageHash:imageHash,\r\n            goalAmount:goalAmount,\r\n            minimumContrubution:minimumContrubution,\r\n            deadline: deadline,\r\n            active:true\r\n        });\r\n    }\r\n    \r\n    /*\r\n    *   @desc funding\r\n    */\r\n    function fund() public payable{\r\n        // when contrubution is greater or equals to min. contrubution add contrubutor to approvers list\r\n        if(msg.value >= campaign.minimumContrubution){\r\n            approvers[msg.sender] = true;\r\n            approversCount++;\r\n        }\r\n        \r\n        // add to contrubution list\r\n        contributionCount++;\r\n        contributions[contributionCount] = Contribution({\r\n            amount:msg.value,\r\n            contributor:msg.sender\r\n        });\r\n       \r\n    }\r\n    \r\n    /*\r\n    * @make request for withdraw\r\n    */\r\n    function createRequest(\r\n        string memory description,\r\n        uint value, \r\n        address payable recipient\r\n    ) public isCreator{\r\n        Request memory newRequest = Request({\r\n           description:description,\r\n           value:value,\r\n           recipient:recipient,\r\n           complete:false,\r\n           approvalCount:0\r\n        });\r\n        \r\n        // save to requests array\r\n        requests.push(newRequest);\r\n    }\r\n    \r\n    /*\r\n    * @ approve request\r\n    */\r\n    function approveRequest(uint index) public {\r\n         Request storage request = requests[index];\r\n        \r\n        require(approvers[msg.sender]);\r\n        require(!request.approvals[msg.sender]);\r\n        \r\n        request.approvals[msg.sender] = true;\r\n        request.approvalCount++;\r\n    }\r\n    \r\n    // finialize request\r\n    function finializeRequest(uint index) public isCreator{\r\n        \r\n        Request storage request = requests[index];\r\n        \r\n        require(request.approvalCount > (approversCount/2 ));\r\n        require(!request.complete);\r\n        \r\n        request.recipient.transfer(request.value);\r\n        request.complete = true;\r\n        \r\n    }  \r\n    \r\n    // kill/destroy contract by creator\r\n     function kill() public isCreator {\r\n        selfdestruct(campaign.creator);\r\n    }\r\n    \r\n    /**\r\n     * Do not allow direct deposits.\r\n     */\r\n    // fallback() external payable {\r\n    //         revert();\r\n    //     }\r\n    \r\n    \r\n}\r\n",
  "sourcePath": "C:\\Users\\Deepa\\Desktop\\dfund_application\\contracts\\Dfund.sol",
  "compiler": {
    "name": "solc",
    "version": "0.6.12+commit.27d51765.Emscripten.clang"
  },
  "schemaVersion": "3.3.1",
  "updatedAt": "2020-12-12T05:58:35.536Z",
  "devdoc": {
    "kind": "dev",
    "methods": {},
    "version": 1
  },
  "userdoc": {
    "kind": "user",
    "methods": {},
    "version": 1
  }
}