{
  "contractName": "Dfund",
  "abi": [
    {
      "inputs": [
        {
          "internalType": "address",
          "name": "creator",
          "type": "address"
        },
        {
          "internalType": "string",
          "name": "title",
          "type": "string"
        },
        {
          "internalType": "string",
          "name": "description",
          "type": "string"
        },
        {
          "internalType": "string",
          "name": "category",
          "type": "string"
        },
        {
          "internalType": "string",
          "name": "country",
          "type": "string"
        },
        {
          "internalType": "uint256",
          "name": "goalAmount",
          "type": "uint256"
        },
        {
          "internalType": "uint256",
          "name": "minimumContrubution",
          "type": "uint256"
        },
        {
          "internalType": "uint256",
          "name": "deadline",
          "type": "uint256"
        },
        {
          "internalType": "string",
          "name": "imageHash",
          "type": "string"
        }
      ],
      "stateMutability": "nonpayable",
      "type": "constructor"
    },
    {
      "anonymous": false,
      "inputs": [
        {
          "indexed": false,
          "internalType": "string",
          "name": "title",
          "type": "string"
        }
      ],
      "name": "LogCampaignConvertedToInActive",
      "type": "event"
    },
    {
      "anonymous": false,
      "inputs": [
        {
          "indexed": false,
          "internalType": "address",
          "name": "projectAddress",
          "type": "address"
        },
        {
          "indexed": false,
          "internalType": "address",
          "name": "contributor",
          "type": "address"
        },
        {
          "indexed": false,
          "internalType": "uint256",
          "name": "amount",
          "type": "uint256"
        },
        {
          "indexed": false,
          "internalType": "bool",
          "name": "isApprover",
          "type": "bool"
        }
      ],
      "name": "LogContributionSent",
      "type": "event"
    },
    {
      "anonymous": false,
      "inputs": [
        {
          "indexed": false,
          "internalType": "string",
          "name": "message",
          "type": "string"
        }
      ],
      "name": "LogFailure",
      "type": "event"
    },
    {
      "anonymous": false,
      "inputs": [],
      "name": "LogRequestApproved",
      "type": "event"
    },
    {
      "anonymous": false,
      "inputs": [
        {
          "indexed": false,
          "internalType": "address payable",
          "name": "maker",
          "type": "address"
        },
        {
          "indexed": false,
          "internalType": "string",
          "name": "description",
          "type": "string"
        },
        {
          "indexed": false,
          "internalType": "uint256",
          "name": "value",
          "type": "uint256"
        },
        {
          "indexed": false,
          "internalType": "address payable",
          "name": "recipient",
          "type": "address"
        }
      ],
      "name": "LogRequestCreated",
      "type": "event"
    },
    {
      "anonymous": false,
      "inputs": [],
      "name": "LogRequestFinilized",
      "type": "event"
    },
    {
      "inputs": [
        {
          "internalType": "address",
          "name": "",
          "type": "address"
        }
      ],
      "name": "approvers",
      "outputs": [
        {
          "internalType": "bool",
          "name": "",
          "type": "bool"
        }
      ],
      "stateMutability": "view",
      "type": "function"
    },
    {
      "inputs": [],
      "name": "approversCount",
      "outputs": [
        {
          "internalType": "uint256",
          "name": "",
          "type": "uint256"
        }
      ],
      "stateMutability": "view",
      "type": "function"
    },
    {
      "inputs": [],
      "name": "campaign",
      "outputs": [
        {
          "internalType": "address payable",
          "name": "creator",
          "type": "address"
        },
        {
          "internalType": "string",
          "name": "title",
          "type": "string"
        },
        {
          "internalType": "string",
          "name": "description",
          "type": "string"
        },
        {
          "internalType": "string",
          "name": "category",
          "type": "string"
        },
        {
          "internalType": "string",
          "name": "country",
          "type": "string"
        },
        {
          "internalType": "uint256",
          "name": "goalAmount",
          "type": "uint256"
        },
        {
          "internalType": "uint256",
          "name": "minimumContrubution",
          "type": "uint256"
        },
        {
          "internalType": "uint256",
          "name": "deadline",
          "type": "uint256"
        },
        {
          "internalType": "bool",
          "name": "active",
          "type": "bool"
        },
        {
          "internalType": "string",
          "name": "imageHash",
          "type": "string"
        }
      ],
      "stateMutability": "view",
      "type": "function"
    },
    {
      "inputs": [],
      "name": "contributionCount",
      "outputs": [
        {
          "internalType": "uint256",
          "name": "",
          "type": "uint256"
        }
      ],
      "stateMutability": "view",
      "type": "function"
    },
    {
      "inputs": [
        {
          "internalType": "uint256",
          "name": "",
          "type": "uint256"
        }
      ],
      "name": "contributions",
      "outputs": [
        {
          "internalType": "uint256",
          "name": "amount",
          "type": "uint256"
        },
        {
          "internalType": "address",
          "name": "contributor",
          "type": "address"
        }
      ],
      "stateMutability": "view",
      "type": "function"
    },
    {
      "inputs": [
        {
          "internalType": "uint256",
          "name": "",
          "type": "uint256"
        }
      ],
      "name": "requests",
      "outputs": [
        {
          "internalType": "string",
          "name": "description",
          "type": "string"
        },
        {
          "internalType": "uint256",
          "name": "value",
          "type": "uint256"
        },
        {
          "internalType": "address payable",
          "name": "recipient",
          "type": "address"
        },
        {
          "internalType": "bool",
          "name": "complete",
          "type": "bool"
        },
        {
          "internalType": "uint256",
          "name": "approvalCount",
          "type": "uint256"
        }
      ],
      "stateMutability": "view",
      "type": "function"
    },
    {
      "stateMutability": "payable",
      "type": "receive"
    },
    {
      "inputs": [],
      "name": "fund",
      "outputs": [],
      "stateMutability": "payable",
      "type": "function"
    },
    {
      "inputs": [
        {
          "internalType": "string",
          "name": "description",
          "type": "string"
        },
        {
          "internalType": "uint256",
          "name": "value",
          "type": "uint256"
        },
        {
          "internalType": "address payable",
          "name": "recipient",
          "type": "address"
        }
      ],
      "name": "createRequest",
      "outputs": [],
      "stateMutability": "nonpayable",
      "type": "function"
    },
    {
      "inputs": [
        {
          "internalType": "uint256",
          "name": "index",
          "type": "uint256"
        }
      ],
      "name": "approveRequest",
      "outputs": [],
      "stateMutability": "nonpayable",
      "type": "function"
    },
    {
      "inputs": [
        {
          "internalType": "uint256",
          "name": "index",
          "type": "uint256"
        }
      ],
      "name": "finializeRequest",
      "outputs": [],
      "stateMutability": "nonpayable",
      "type": "function"
    },
    {
      "inputs": [],
      "name": "getRequestsCount",
      "outputs": [
        {
          "internalType": "uint256",
          "name": "",
          "type": "uint256"
        }
      ],
      "stateMutability": "view",
      "type": "function"
    },
    {
      "inputs": [],
      "name": "stopCampaign",
      "outputs": [
        {
          "internalType": "bool",
          "name": "",
          "type": "bool"
        }
      ],
      "stateMutability": "nonpayable",
      "type": "function"
    },
    {
      "inputs": [],
      "name": "kill",
      "outputs": [],
      "stateMutability": "nonpayable",
      "type": "function"
    }
  ],
  "bytecode": "0x60806040523480156200001157600080fd5b5060405162001d9b38038062001d9b83398181016040526101208110156200003857600080fd5b8101908080519060200190929190805160405193929190846401000000008211156200006357600080fd5b838201915060208201858111156200007a57600080fd5b82518660018202830111640100000000821117156200009857600080fd5b8083526020830192505050908051906020019080838360005b83811015620000ce578082015181840152602081019050620000b1565b50505050905090810190601f168015620000fc5780820380516001836020036101000a031916815260200191505b50604052602001805160405193929190846401000000008211156200012057600080fd5b838201915060208201858111156200013757600080fd5b82518660018202830111640100000000821117156200015557600080fd5b8083526020830192505050908051906020019080838360005b838110156200018b5780820151818401526020810190506200016e565b50505050905090810190601f168015620001b95780820380516001836020036101000a031916815260200191505b5060405260200180516040519392919084640100000000821115620001dd57600080fd5b83820191506020820185811115620001f457600080fd5b82518660018202830111640100000000821117156200021257600080fd5b8083526020830192505050908051906020019080838360005b83811015620002485780820151818401526020810190506200022b565b50505050905090810190601f168015620002765780820380516001836020036101000a031916815260200191505b50604052602001805160405193929190846401000000008211156200029a57600080fd5b83820191506020820185811115620002b157600080fd5b8251866001820283011164010000000082111715620002cf57600080fd5b8083526020830192505050908051906020019080838360005b8381101562000305578082015181840152602081019050620002e8565b50505050905090810190601f168015620003335780820380516001836020036101000a031916815260200191505b50604052602001805190602001909291908051906020019092919080519060200190929190805160405193929190846401000000008211156200037557600080fd5b838201915060208201858111156200038c57600080fd5b8251866001820283011164010000000082111715620003aa57600080fd5b8083526020830192505050908051906020019080838360005b83811015620003e0578082015181840152602081019050620003c3565b50505050905090810190601f1680156200040e5780820380516001836020036101000a031916815260200191505b506040525050506040518061014001604052808a73ffffffffffffffffffffffffffffffffffffffff168152602001898152602001888152602001878152602001868152602001858152602001848152602001838152602001600115158152602001828152506000808201518160000160006101000a81548173ffffffffffffffffffffffffffffffffffffffff021916908373ffffffffffffffffffffffffffffffffffffffff1602179055506020820151816001019080519060200190620004da929190620005a9565b506040820151816002019080519060200190620004f9929190620005a9565b50606082015181600301908051906020019062000518929190620005a9565b50608082015181600401908051906020019062000537929190620005a9565b5060a0820151816005015560c0820151816006015560e082015181600701556101008201518160080160006101000a81548160ff02191690831515021790555061012082015181600901908051906020019062000596929190620005a9565b509050505050505050505050506200064f565b828054600181600116156101000203166002900490600052602060002090601f016020900481019282601f10620005ec57805160ff19168380011785556200061d565b828001600101855582156200061d579182015b828111156200061c578251825591602001919060010190620005ff565b5b5090506200062c919062000630565b5090565b5b808211156200064b57600081600090555060010162000631565b5090565b61173c806200065f6000396000f3fe6080604052600436106100c65760003560e01c8063811e539c1161007f5780638a9cfd55116100595780638a9cfd55146105d05780639e025bc3146106c2578063b60d4288146106fd578063d7d1bbdb14610707576100d0565b8063811e539c1461024257806381d12c58146104bd57806382fde093146105a5576100d0565b80630a144391146100d557806316f1bc221461013c5780631cee0700146101695780633410452a146101d557806341c0e1b5146102005780635b18056b14610217576100d0565b366100d057600080fd5b600080fd5b3480156100e157600080fd5b50610124600480360360208110156100f857600080fd5b81019080803573ffffffffffffffffffffffffffffffffffffffff169060200190929190505050610742565b60405180821515815260200191505060405180910390f35b34801561014857600080fd5b50610151610762565b60405180821515815260200191505060405180910390f35b34801561017557600080fd5b506101a26004803603602081101561018c57600080fd5b8101908080359060200190929190505050610903565b604051808381526020018273ffffffffffffffffffffffffffffffffffffffff1681526020019250505060405180910390f35b3480156101e157600080fd5b506101ea610947565b6040518082815260200191505060405180910390f35b34801561020c57600080fd5b50610215610954565b005b34801561022357600080fd5b5061022c6109ed565b6040518082815260200191505060405180910390f35b34801561024e57600080fd5b506102576109f3565b604051808b73ffffffffffffffffffffffffffffffffffffffff168152602001806020018060200180602001806020018a815260200189815260200188815260200187151581526020018060200186810386528f818151815260200191508051906020019080838360005b838110156102dd5780820151818401526020810190506102c2565b50505050905090810190601f16801561030a5780820380516001836020036101000a031916815260200191505b5086810385528e818151815260200191508051906020019080838360005b83811015610343578082015181840152602081019050610328565b50505050905090810190601f1680156103705780820380516001836020036101000a031916815260200191505b5086810384528d818151815260200191508051906020019080838360005b838110156103a957808201518184015260208101905061038e565b50505050905090810190601f1680156103d65780820380516001836020036101000a031916815260200191505b5086810383528c818151815260200191508051906020019080838360005b8381101561040f5780820151818401526020810190506103f4565b50505050905090810190601f16801561043c5780820380516001836020036101000a031916815260200191505b50868103825287818151815260200191508051906020019080838360005b8381101561047557808201518184015260208101905061045a565b50505050905090810190601f1680156104a25780820380516001836020036101000a031916815260200191505b509f5050505050505050505050505050505060405180910390f35b3480156104c957600080fd5b506104f6600480360360208110156104e057600080fd5b8101908080359060200190929190505050610d5a565b60405180806020018681526020018573ffffffffffffffffffffffffffffffffffffffff1681526020018415158152602001838152602001828103825287818151815260200191508051906020019080838360005b8381101561056657808201518184015260208101905061054b565b50505050905090810190601f1680156105935780820380516001836020036101000a031916815260200191505b50965050505050505060405180910390f35b3480156105b157600080fd5b506105ba610e62565b6040518082815260200191505060405180910390f35b3480156105dc57600080fd5b506106c0600480360360608110156105f357600080fd5b810190808035906020019064010000000081111561061057600080fd5b82018360208201111561062257600080fd5b8035906020019184600183028401116401000000008311171561064457600080fd5b91908080601f016020809104026020016040519081016040528093929190818152602001838380828437600081840152601f19601f82011690508083019250505050505050919291929080359060200190929190803573ffffffffffffffffffffffffffffffffffffffff169060200190929190505050610e68565b005b3480156106ce57600080fd5b506106fb600480360360208110156106e557600080fd5b81019080803590602001909291905050506110df565b005b61070561124e565b005b34801561071357600080fd5b506107406004803603602081101561072a57600080fd5b810190808035906020019092919050505061148e565b005b600d6020528060005260406000206000915054906101000a900460ff1681565b60008060000160009054906101000a900473ffffffffffffffffffffffffffffffffffffffff1673ffffffffffffffffffffffffffffffffffffffff163373ffffffffffffffffffffffffffffffffffffffff16146107c057600080fd5b60006040518060400160405280600681526020017f64656570616b000000000000000000000000000000000000000000000000000081525081600101908051906020019061080f9291906115fa565b5060008160080160006101000a81548160ff0219169083151502179055507f09e56b50a52ff7940e34fea5417a6e4a1dc4b4e4d5197949aba30dca1adbedc7600060010160405180806020018281038252838181546001816001161561010002031660029004815260200191508054600181600116156101000203166002900480156108dc5780601f106108b1576101008083540402835291602001916108dc565b820191906000526020600020905b8154815290600101906020018083116108bf57829003601f168201915b50509250505060405180910390a1600060080160009054906101000a900460ff1691505090565b600b6020528060005260406000206000915090508060000154908060010160009054906101000a900473ffffffffffffffffffffffffffffffffffffffff16905082565b6000600a80549050905090565b6000800160009054906101000a900473ffffffffffffffffffffffffffffffffffffffff1673ffffffffffffffffffffffffffffffffffffffff163373ffffffffffffffffffffffffffffffffffffffff16146109b057600080fd5b6000800160009054906101000a900473ffffffffffffffffffffffffffffffffffffffff1673ffffffffffffffffffffffffffffffffffffffff16ff5b600c5481565b60008060000160009054906101000a900473ffffffffffffffffffffffffffffffffffffffff1690806001018054600181600116156101000203166002900480601f016020809104026020016040519081016040528092919081815260200182805460018160011615610100020316600290048015610ab35780601f10610a8857610100808354040283529160200191610ab3565b820191906000526020600020905b815481529060010190602001808311610a9657829003601f168201915b505050505090806002018054600181600116156101000203166002900480601f016020809104026020016040519081016040528092919081815260200182805460018160011615610100020316600290048015610b515780601f10610b2657610100808354040283529160200191610b51565b820191906000526020600020905b815481529060010190602001808311610b3457829003601f168201915b505050505090806003018054600181600116156101000203166002900480601f016020809104026020016040519081016040528092919081815260200182805460018160011615610100020316600290048015610bef5780601f10610bc457610100808354040283529160200191610bef565b820191906000526020600020905b815481529060010190602001808311610bd257829003601f168201915b505050505090806004018054600181600116156101000203166002900480601f016020809104026020016040519081016040528092919081815260200182805460018160011615610100020316600290048015610c8d5780601f10610c6257610100808354040283529160200191610c8d565b820191906000526020600020905b815481529060010190602001808311610c7057829003601f168201915b5050505050908060050154908060060154908060070154908060080160009054906101000a900460ff1690806009018054600181600116156101000203166002900480601f016020809104026020016040519081016040528092919081815260200182805460018160011615610100020316600290048015610d505780601f10610d2557610100808354040283529160200191610d50565b820191906000526020600020905b815481529060010190602001808311610d3357829003601f168201915b505050505090508a565b600a8181548110610d6757fe5b9060005260206000209060050201600091509050806000018054600181600116156101000203166002900480601f016020809104026020016040519081016040528092919081815260200182805460018160011615610100020316600290048015610e135780601f10610de857610100808354040283529160200191610e13565b820191906000526020600020905b815481529060010190602001808311610df657829003601f168201915b5050505050908060010154908060020160009054906101000a900473ffffffffffffffffffffffffffffffffffffffff16908060020160149054906101000a900460ff16908060030154905085565b600e5481565b6000800160009054906101000a900473ffffffffffffffffffffffffffffffffffffffff1673ffffffffffffffffffffffffffffffffffffffff163373ffffffffffffffffffffffffffffffffffffffff1614610ec457600080fd5b610ecc61167a565b6040518060a001604052808581526020018481526020018373ffffffffffffffffffffffffffffffffffffffff16815260200160001515815260200160008152509050600a8190806001815401808255809150506001900390600052602060002090600502016000909190919091506000820151816000019080519060200190610f579291906115fa565b506020820151816001015560408201518160020160006101000a81548173ffffffffffffffffffffffffffffffffffffffff021916908373ffffffffffffffffffffffffffffffffffffffff16021790555060608201518160020160146101000a81548160ff0219169083151502179055506080820151816003015550507f67073624e468d4617082c5288665c8236f057014fcba06e36bb847fa0957711c6000800160009054906101000a900473ffffffffffffffffffffffffffffffffffffffff16858585604051808573ffffffffffffffffffffffffffffffffffffffff168152602001806020018481526020018373ffffffffffffffffffffffffffffffffffffffff168152602001828103825285818151815260200191508051906020019080838360005b8381101561109c578082015181840152602081019050611081565b50505050905090810190601f1680156110c95780820380516001836020036101000a031916815260200191505b509550505050505060405180910390a150505050565b6000800160009054906101000a900473ffffffffffffffffffffffffffffffffffffffff1673ffffffffffffffffffffffffffffffffffffffff163373ffffffffffffffffffffffffffffffffffffffff161461113b57600080fd5b6000600a828154811061114a57fe5b906000526020600020906005020190506002600e548161116657fe5b0481600301541161117657600080fd5b8060020160149054906101000a900460ff161561119257600080fd5b8060020160009054906101000a900473ffffffffffffffffffffffffffffffffffffffff1673ffffffffffffffffffffffffffffffffffffffff166108fc82600101549081150290604051600060405180830381858888f19350505050158015611200573d6000803e3d6000fd5b5060018160020160146101000a81548160ff0219169083151502179055507f32409d5cdf5f43ee8459ad132da452ca0c5f87b1aace47691231efb0685c411f60405160405180910390a15050565b600034116112a6577fa2db52a45d71264723caeac03c235d51bb30cff5e1ac71c97a5842ec94fbb6af6040518080602001828103825260288152602001806116df6028913960400191505060405180910390a1600080fd5b600060060154341061131d576001600d60003373ffffffffffffffffffffffffffffffffffffffff1673ffffffffffffffffffffffffffffffffffffffff16815260200190815260200160002060006101000a81548160ff021916908315150217905550600e600081548092919060010191905055505b600c6000815480929190600101919050555060405180604001604052803481526020013373ffffffffffffffffffffffffffffffffffffffff16815250600b6000600c5481526020019081526020016000206000820151816000015560208201518160010160006101000a81548173ffffffffffffffffffffffffffffffffffffffff021916908373ffffffffffffffffffffffffffffffffffffffff1602179055509050507f28e2b22335932a717e467bc59841377a35f3a4de6bfc9fb3bb39fd8e584c13d4303334600d60003373ffffffffffffffffffffffffffffffffffffffff1673ffffffffffffffffffffffffffffffffffffffff16815260200190815260200160002060009054906101000a900460ff16604051808573ffffffffffffffffffffffffffffffffffffffff1681526020018473ffffffffffffffffffffffffffffffffffffffff168152602001838152602001821515815260200194505050505060405180910390a1565b6000600a828154811061149d57fe5b90600052602060002090600502019050600d60003373ffffffffffffffffffffffffffffffffffffffff1673ffffffffffffffffffffffffffffffffffffffff16815260200190815260200160002060009054906101000a900460ff1661150357600080fd5b8060040160003373ffffffffffffffffffffffffffffffffffffffff1673ffffffffffffffffffffffffffffffffffffffff16815260200190815260200160002060009054906101000a900460ff161561155c57600080fd5b60018160040160003373ffffffffffffffffffffffffffffffffffffffff1673ffffffffffffffffffffffffffffffffffffffff16815260200190815260200160002060006101000a81548160ff02191690831515021790555080600301600081548092919060010191905055507f1e3f208ee2a4fdd402e02558472a80f05d15a59bff0bdf369ae93eb9bab33a6c60405160405180910390a15050565b828054600181600116156101000203166002900490600052602060002090601f016020900481019282601f1061163b57805160ff1916838001178555611669565b82800160010185558215611669579182015b8281111561166857825182559160200191906001019061164d565b5b50905061167691906116c1565b5090565b6040518060a001604052806060815260200160008152602001600073ffffffffffffffffffffffffffffffffffffffff168152602001600015158152602001600081525090565b5b808211156116da5760008160009055506001016116c2565b509056fe436f6e747269627574696f6e73206d7573742062652067726561746572207468616e203020776569a2646970667358221220e3c4e81ce1044218e0f0d31ca7768c1423391fe0a37b4f5a1538e296bfd62e9664736f6c634300060c0033",
  "immutableReferences": {},
  "source": "// SPDX-License-Identifier: MIT\r\npragma solidity ^0.6.0;\r\n\r\n/// @title Dfund smart contract\r\n/// @notice crowdfunding smart contract\r\n/// @author Deepak Oli\r\n\r\ncontract Dfund{\r\n    \r\n    struct Campaign{\r\n        address payable creator;\r\n        string title;\r\n        string description;\r\n        string category;\r\n        string country;\r\n        uint goalAmount;\r\n        uint minimumContrubution;\r\n        uint deadline;\r\n        bool active;\r\n        string imageHash;\r\n    }\r\n    \r\n    struct Contribution {\r\n        uint amount;\r\n        address contributor;\r\n    }\r\n    \r\n    struct Request {\r\n        string description;\r\n        uint value;\r\n        address payable recipient;\r\n        bool complete;\r\n        uint approvalCount;\r\n        mapping(address => bool) approvals;\r\n    }\r\n    \r\n    Campaign public campaign;\r\n    Request[] public requests;\r\n    mapping (uint => Contribution) public contributions;\r\n    uint public contributionCount;\r\n    \r\n    mapping(address => bool) public approvers;\r\n    uint public approversCount;\r\n    \r\n    // EVENTS\r\n    event LogContributionSent(address projectAddress, address contributor, uint amount,bool isApprover);\r\n    event LogRequestCreated(address payable maker,string description, uint value, address payable recipient);\r\n    event LogRequestFinilized();\r\n    event LogRequestApproved();\r\n    event LogCampaignConvertedToInActive(string title);\r\n\r\n    event LogFailure(string message);\r\n    \r\n    \r\n    \r\n    modifier isCreator {\r\n         require(msg.sender == campaign.creator);\r\n        _;\r\n    }\r\n    \r\n\r\n    /// @param creator campaign creator\r\n    /// @param title campaign title\r\n    /// @param description description of campaign\r\n    /// @param category category to which campaign belong\r\n    /// @param country country of origin\r\n    /// @param goalAmount goal amount of campaign\r\n    /// @param minimumContrubution minimun contribution which determines approver\r\n    /// @param deadline end date of campaign\r\n    /// @param imageHash image hash string\r\n    constructor(\r\n        address creator,\r\n        string memory title,\r\n        string memory description,\r\n        string memory category,\r\n        string memory country,\r\n        uint goalAmount,\r\n        uint minimumContrubution,\r\n        uint deadline,\r\n        string memory imageHash\r\n    )\r\n        public\r\n    {\r\n        campaign = Campaign({\r\n            creator:address(uint160(creator)),\r\n            title:title,\r\n            description:description,\r\n            category:category,\r\n            country:country,\r\n            imageHash:imageHash,\r\n            goalAmount:goalAmount,\r\n            minimumContrubution:minimumContrubution,\r\n            deadline: deadline,\r\n            active:true\r\n        });\r\n    }\r\n    \r\n    /// @notice funding in different campaigns\r\n    function fund() public payable{\r\n\r\n          // Check amount sent is greater than 0\r\n        if (msg.value <= 0) {\r\n            emit LogFailure(\"Contributions must be greater than 0 wei\");\r\n            revert();\r\n        }\r\n\r\n        // when contrubution is greater or equals to min. contrubution add contrubutor to approvers list\r\n        if(msg.value >= campaign.minimumContrubution){\r\n            approvers[msg.sender] = true;\r\n            approversCount++;\r\n        }\r\n        \r\n        // add to contrubution list\r\n        contributionCount++;\r\n        contributions[contributionCount] = Contribution({\r\n            amount:msg.value,\r\n            contributor:msg.sender\r\n        });\r\n\r\n        emit LogContributionSent(address(this),msg.sender, msg.value,approvers[msg.sender]);\r\n       \r\n    }\r\n    \r\n\r\n    /// @notice make request for withdraw\r\n    function createRequest(\r\n        string memory description,\r\n        uint value, \r\n        address payable recipient\r\n    ) public isCreator{\r\n        Request memory newRequest = Request({\r\n           description:description,\r\n           value:value,\r\n           recipient:recipient,\r\n           complete:false,\r\n           approvalCount:0\r\n        });\r\n        \r\n        // save to requests array\r\n        requests.push(newRequest);\r\n\r\n        emit LogRequestCreated(campaign.creator,description,value,recipient);\r\n    }\r\n    \r\n    /// @notice approve request\r\n    function approveRequest(uint index) public {\r\n         Request storage request = requests[index];\r\n        \r\n        require(approvers[msg.sender]);\r\n        require(!request.approvals[msg.sender]);\r\n        \r\n        request.approvals[msg.sender] = true;\r\n        request.approvalCount++;\r\n\r\n        emit LogRequestApproved();\r\n    }\r\n    \r\n    /// @notice finalize the request and transfer fund to address\r\n    /// @param index request index number\r\n    function finializeRequest(uint index) public isCreator{\r\n        \r\n        Request storage request = requests[index];\r\n        \r\n        require(request.approvalCount > (approversCount/2 ));\r\n        require(!request.complete);\r\n        \r\n        request.recipient.transfer(request.value);\r\n        request.complete = true;\r\n\r\n        emit LogRequestFinilized();   \r\n    } \r\n\r\n    function getRequestsCount() public view returns (uint256){\r\n        return requests.length;\r\n    }\r\n\r\n    function stopCampaign() public isCreator returns(bool){\r\n        Campaign storage c1 = campaign;\r\n        c1.title = \"deepak\";\r\n        c1.active = false;\r\n        emit LogCampaignConvertedToInActive(campaign.title);\r\n        return campaign.active;\r\n    }\r\n\r\n    \r\n    /// @notice Kill/Destroy contract by creator\r\n     function kill() public isCreator {\r\n        selfdestruct(campaign.creator);\r\n    }\r\n    \r\n    \r\n    /// @notice Don't allow Ether to be sent blindly to this contract\r\n    receive() external payable{\r\n         revert();\r\n    }\r\n}\r\n",
  "sourcePath": "C:\\Users\\Deepa\\Desktop\\dfund_application\\contracts\\Dfund.sol",
  "compiler": {
    "name": "solc",
    "version": "0.6.12+commit.27d51765.Emscripten.clang"
  },
  "schemaVersion": "3.3.1",
  "updatedAt": "2021-03-27T05:58:03.635Z",
  "devdoc": {
    "author": "Deepak Oli",
    "kind": "dev",
    "methods": {
      "constructor": {
        "params": {
          "category": "category to which campaign belong",
          "country": "country of origin",
          "creator": "campaign creator",
          "deadline": "end date of campaign",
          "description": "description of campaign",
          "goalAmount": "goal amount of campaign",
          "imageHash": "image hash string",
          "minimumContrubution": "minimun contribution which determines approver",
          "title": "campaign title"
        }
      },
      "finializeRequest(uint256)": {
        "params": {
          "index": "request index number"
        }
      }
    },
    "title": "Dfund smart contract",
    "version": 1
  },
  "userdoc": {
    "kind": "user",
    "methods": {
      "approveRequest(uint256)": {
        "notice": "approve request"
      },
      "createRequest(string,uint256,address)": {
        "notice": "make request for withdraw"
      },
      "finializeRequest(uint256)": {
        "notice": "finalize the request and transfer fund to address"
      },
      "fund()": {
        "notice": "funding in different campaigns"
      },
      "kill()": {
        "notice": "Kill/Destroy contract by creator"
      }
    },
    "notice": "crowdfunding smart contract",
    "version": 1
  }
}